{
  "contractName": "SolidityDrive",
  "abi": [
    {
      "inputs": [
        {
          "internalType": "address",
          "name": "",
          "type": "address"
        },
        {
          "internalType": "uint256",
          "name": "",
          "type": "uint256"
        }
      ],
      "name": "files",
      "outputs": [
        {
          "internalType": "string",
          "name": "hash",
          "type": "string"
        },
        {
          "internalType": "string",
          "name": "fileName",
          "type": "string"
        },
        {
          "internalType": "string",
          "name": "fileType",
          "type": "string"
        },
        {
          "internalType": "uint256",
          "name": "time",
          "type": "uint256"
        }
      ],
      "stateMutability": "view",
      "type": "function",
      "constant": true
    },
    {
      "inputs": [
        {
          "internalType": "string",
          "name": "_hash",
          "type": "string"
        },
        {
          "internalType": "string",
          "name": "_fileName",
          "type": "string"
        },
        {
          "internalType": "string",
          "name": "_fileType",
          "type": "string"
        },
        {
          "internalType": "uint256",
          "name": "_time",
          "type": "uint256"
        }
      ],
      "name": "addFile",
      "outputs": [],
      "stateMutability": "nonpayable",
      "type": "function"
    },
    {
      "inputs": [],
      "name": "getlength",
      "outputs": [
        {
          "internalType": "uint256",
          "name": "",
          "type": "uint256"
        }
      ],
      "stateMutability": "view",
      "type": "function",
      "constant": true
    },
    {
      "inputs": [
        {
          "internalType": "uint256",
          "name": "_fileIndex",
          "type": "uint256"
        }
      ],
      "name": "get",
      "outputs": [
        {
          "internalType": "string",
          "name": "",
          "type": "string"
        },
        {
          "internalType": "string",
          "name": "",
          "type": "string"
        },
        {
          "internalType": "string",
          "name": "",
          "type": "string"
        },
        {
          "internalType": "uint256",
          "name": "",
          "type": "uint256"
        }
      ],
      "stateMutability": "view",
      "type": "function",
      "constant": true
    }
  ],
  "bytecode": "0x608060405234801561001057600080fd5b50610dae806100206000396000f3fe608060405234801561001057600080fd5b506004361061004c5760003560e01c80632ba6978e146100515780637a359ccd146100845780639507d39a146100a0578063a16d3598146100d3575b600080fd5b61006b600480360381019061006691906106fa565b6100f1565b60405161007b94939291906107d9565b60405180910390f35b61009e60048036038101906100999190610968565b6102d6565b005b6100ba60048036038101906100b59190610a23565b6103b2565b6040516100ca94939291906107d9565b60405180910390f35b6100db610609565b6040516100e89190610a50565b60405180910390f35b6000602052816000526040600020818154811061010d57600080fd5b90600052602060002090600402016000915091505080600001805461013190610a9a565b80601f016020809104026020016040519081016040528092919081815260200182805461015d90610a9a565b80156101aa5780601f1061017f576101008083540402835291602001916101aa565b820191906000526020600020905b81548152906001019060200180831161018d57829003601f168201915b5050505050908060010180546101bf90610a9a565b80601f01602080910402602001604051908101604052809291908181526020018280546101eb90610a9a565b80156102385780601f1061020d57610100808354040283529160200191610238565b820191906000526020600020905b81548152906001019060200180831161021b57829003601f168201915b50505050509080600201805461024d90610a9a565b80601f016020809104026020016040519081016040528092919081815260200182805461027990610a9a565b80156102c65780601f1061029b576101008083540402835291602001916102c6565b820191906000526020600020905b8154815290600101906020018083116102a957829003601f168201915b5050505050908060030154905084565b6000803373ffffffffffffffffffffffffffffffffffffffff1673ffffffffffffffffffffffffffffffffffffffff168152602001908152602001600020604051806080016040528086815260200185815260200184815260200183815250908060018154018082558091505060019003906000526020600020906004020160009091909190915060008201518160000190816103739190610c77565b5060208201518160010190816103899190610c77565b50604082015181600201908161039f9190610c77565b5060608201518160030155505050505050565b60608060606000806000803373ffffffffffffffffffffffffffffffffffffffff1673ffffffffffffffffffffffffffffffffffffffff168152602001908152602001600020868154811061040a57610409610d49565b5b906000526020600020906004020160405180608001604052908160008201805461043390610a9a565b80601f016020809104026020016040519081016040528092919081815260200182805461045f90610a9a565b80156104ac5780601f10610481576101008083540402835291602001916104ac565b820191906000526020600020905b81548152906001019060200180831161048f57829003601f168201915b505050505081526020016001820180546104c590610a9a565b80601f01602080910402602001604051908101604052809291908181526020018280546104f190610a9a565b801561053e5780601f106105135761010080835404028352916020019161053e565b820191906000526020600020905b81548152906001019060200180831161052157829003601f168201915b5050505050815260200160028201805461055790610a9a565b80601f016020809104026020016040519081016040528092919081815260200182805461058390610a9a565b80156105d05780601f106105a5576101008083540402835291602001916105d0565b820191906000526020600020905b8154815290600101906020018083116105b357829003601f168201915b50505050508152602001600382015481525050905080600001518160200151826040015183606001519450945094509450509193509193565b60008060003373ffffffffffffffffffffffffffffffffffffffff1673ffffffffffffffffffffffffffffffffffffffff16815260200190815260200160002080549050905090565b6000604051905090565b600080fd5b600080fd5b600073ffffffffffffffffffffffffffffffffffffffff82169050919050565b600061069182610666565b9050919050565b6106a181610686565b81146106ac57600080fd5b50565b6000813590506106be81610698565b92915050565b6000819050919050565b6106d7816106c4565b81146106e257600080fd5b50565b6000813590506106f4816106ce565b92915050565b600080604083850312156107115761071061065c565b5b600061071f858286016106af565b9250506020610730858286016106e5565b9150509250929050565b600081519050919050565b600082825260208201905092915050565b60005b83811015610774578082015181840152602081019050610759565b60008484015250505050565b6000601f19601f8301169050919050565b600061079c8261073a565b6107a68185610745565b93506107b6818560208601610756565b6107bf81610780565b840191505092915050565b6107d3816106c4565b82525050565b600060808201905081810360008301526107f38187610791565b905081810360208301526108078186610791565b9050818103604083015261081b8185610791565b905061082a60608301846107ca565b95945050505050565b600080fd5b600080fd5b7f4e487b7100000000000000000000000000000000000000000000000000000000600052604160045260246000fd5b61087582610780565b810181811067ffffffffffffffff821117156108945761089361083d565b5b80604052505050565b60006108a7610652565b90506108b3828261086c565b919050565b600067ffffffffffffffff8211156108d3576108d261083d565b5b6108dc82610780565b9050602081019050919050565b82818337600083830152505050565b600061090b610906846108b8565b61089d565b90508281526020810184848401111561092757610926610838565b5b6109328482856108e9565b509392505050565b600082601f83011261094f5761094e610833565b5b813561095f8482602086016108f8565b91505092915050565b600080600080608085870312156109825761098161065c565b5b600085013567ffffffffffffffff8111156109a05761099f610661565b5b6109ac8782880161093a565b945050602085013567ffffffffffffffff8111156109cd576109cc610661565b5b6109d98782880161093a565b935050604085013567ffffffffffffffff8111156109fa576109f9610661565b5b610a068782880161093a565b9250506060610a17878288016106e5565b91505092959194509250565b600060208284031215610a3957610a3861065c565b5b6000610a47848285016106e5565b91505092915050565b6000602082019050610a6560008301846107ca565b92915050565b7f4e487b7100000000000000000000000000000000000000000000000000000000600052602260045260246000fd5b60006002820490506001821680610ab257607f821691505b602082108103610ac557610ac4610a6b565b5b50919050565b60008190508160005260206000209050919050565b60006020601f8301049050919050565b600082821b905092915050565b600060088302610b2d7fffffffffffffffffffffffffffffffffffffffffffffffffffffffffffffffff82610af0565b610b378683610af0565b95508019841693508086168417925050509392505050565b6000819050919050565b6000610b74610b6f610b6a846106c4565b610b4f565b6106c4565b9050919050565b6000819050919050565b610b8e83610b59565b610ba2610b9a82610b7b565b848454610afd565b825550505050565b600090565b610bb7610baa565b610bc2818484610b85565b505050565b5b81811015610be657610bdb600082610baf565b600181019050610bc8565b5050565b601f821115610c2b57610bfc81610acb565b610c0584610ae0565b81016020851015610c14578190505b610c28610c2085610ae0565b830182610bc7565b50505b505050565b600082821c905092915050565b6000610c4e60001984600802610c30565b1980831691505092915050565b6000610c678383610c3d565b9150826002028217905092915050565b610c808261073a565b67ffffffffffffffff811115610c9957610c9861083d565b5b610ca38254610a9a565b610cae828285610bea565b600060209050601f831160018114610ce15760008415610ccf578287015190505b610cd98582610c5b565b865550610d41565b601f198416610cef86610acb565b60005b82811015610d1757848901518255600182019150602085019450602081019050610cf2565b86831015610d345784890151610d30601f891682610c3d565b8355505b6001600288020188555050505b505050505050565b7f4e487b7100000000000000000000000000000000000000000000000000000000600052603260045260246000fdfea2646970667358221220b40bcb7d7f98cc088e8e0fe3477e474f6974d4d4c3f660504b363f83b69c074464736f6c63430008110033",
  "immutableReferences": {},
  "source": "//SPDX-License-Identifier: MIT\r\n\r\npragma solidity 0.8.17;\r\n\r\ncontract SolidityDrive {\r\n    struct File {\r\n        string hash;\r\n        string fileName;\r\n        string fileType;\r\n        uint256 time;\r\n    }\r\n\r\n    mapping(address => File[]) public files;\r\n\r\n    function addFile(\r\n        string memory _hash,\r\n        string memory _fileName,\r\n        string memory _fileType,\r\n        uint256 _time\r\n    ) public {\r\n        files[msg.sender].push(\r\n            File({\r\n                hash: _hash,\r\n                fileName: _fileName,\r\n                fileType: _fileType,\r\n                time: _time\r\n            })\r\n        );\r\n    }\r\n\r\n    function getlength() public view returns (uint256) {\r\n        return files[msg.sender].length;\r\n    }\r\n\r\n    function get(uint256 _fileIndex)\r\n        public\r\n        view\r\n        returns (\r\n            string memory,\r\n            string memory,\r\n            string memory,\r\n            uint256\r\n        )\r\n    {\r\n        File memory file = files[msg.sender][_fileIndex];\r\n        return (file.hash, file.fileName, file.fileType, file.time);\r\n    }\r\n}\r\n",
  "sourcePath": "C:\\Users\\OLANREWAJU\\Desktop\\Portfolio\\Decentralised_drive\\truffle\\contracts\\SolidityDrive.sol",
  "compiler": {
    "name": "solc",
    "version": "0.8.17+commit.8df45f5f.Emscripten.clang"
  },
  "schemaVersion": "3.4.10",
  "updatedAt": "2023-01-01T14:40:09.214Z",
  "networkType": "ethereum",
  "devdoc": {
    "kind": "dev",
    "methods": {},
    "version": 1
  },
  "userdoc": {
    "kind": "user",
    "methods": {},
    "version": 1
  }
}